{
  "_format": "hh-sol-artifact-1",
  "contractName": "CrazyPee",
  "sourceName": "contracts/crazypee.sol",
  "abi": [
    {
      "inputs": [],
      "stateMutability": "nonpayable",
      "type": "constructor"
    },
    {
      "anonymous": false,
      "inputs": [
        {
          "indexed": true,
          "internalType": "address",
          "name": "owner",
          "type": "address"
        },
        {
          "indexed": true,
          "internalType": "address",
          "name": "approved",
          "type": "address"
        },
        {
          "indexed": true,
          "internalType": "uint256",
          "name": "tokenId",
          "type": "uint256"
        }
      ],
      "name": "Approval",
      "type": "event"
    },
    {
      "anonymous": false,
      "inputs": [
        {
          "indexed": true,
          "internalType": "address",
          "name": "owner",
          "type": "address"
        },
        {
          "indexed": true,
          "internalType": "address",
          "name": "operator",
          "type": "address"
        },
        {
          "indexed": false,
          "internalType": "bool",
          "name": "approved",
          "type": "bool"
        }
      ],
      "name": "ApprovalForAll",
      "type": "event"
    },
    {
      "anonymous": false,
      "inputs": [
        {
          "indexed": true,
          "internalType": "address",
          "name": "addr",
          "type": "address"
        }
      ],
      "name": "NewAdmin",
      "type": "event"
    },
    {
      "anonymous": false,
      "inputs": [
        {
          "indexed": true,
          "internalType": "address",
          "name": "previousOwner",
          "type": "address"
        },
        {
          "indexed": true,
          "internalType": "address",
          "name": "newOwner",
          "type": "address"
        }
      ],
      "name": "OwnershipTransferred",
      "type": "event"
    },
    {
      "anonymous": false,
      "inputs": [
        {
          "indexed": true,
          "internalType": "address",
          "name": "addr",
          "type": "address"
        }
      ],
      "name": "RevokedAdmin",
      "type": "event"
    },
    {
      "anonymous": false,
      "inputs": [
        {
          "indexed": true,
          "internalType": "address",
          "name": "from",
          "type": "address"
        },
        {
          "indexed": true,
          "internalType": "address",
          "name": "to",
          "type": "address"
        },
        {
          "indexed": true,
          "internalType": "uint256",
          "name": "tokenId",
          "type": "uint256"
        }
      ],
      "name": "Transfer",
      "type": "event"
    },
    {
      "inputs": [
        {
          "internalType": "address",
          "name": "_addr",
          "type": "address"
        }
      ],
      "name": "addNewAdmin",
      "outputs": [],
      "stateMutability": "nonpayable",
      "type": "function"
    },
    {
      "inputs": [
        {
          "internalType": "address",
          "name": "to",
          "type": "address"
        },
        {
          "internalType": "uint256",
          "name": "tokenId",
          "type": "uint256"
        }
      ],
      "name": "approve",
      "outputs": [],
      "stateMutability": "nonpayable",
      "type": "function"
    },
    {
      "inputs": [
        {
          "internalType": "address",
          "name": "owner",
          "type": "address"
        }
      ],
      "name": "balanceOf",
      "outputs": [
        {
          "internalType": "uint256",
          "name": "",
          "type": "uint256"
        }
      ],
      "stateMutability": "view",
      "type": "function"
    },
    {
      "inputs": [
        {
          "internalType": "uint256",
          "name": "tokenId",
          "type": "uint256"
        }
      ],
      "name": "getApproved",
      "outputs": [
        {
          "internalType": "address",
          "name": "",
          "type": "address"
        }
      ],
      "stateMutability": "view",
      "type": "function"
    },
    {
      "inputs": [
        {
          "internalType": "address",
          "name": "owner",
          "type": "address"
        },
        {
          "internalType": "address",
          "name": "operator",
          "type": "address"
        }
      ],
      "name": "isApprovedForAll",
      "outputs": [
        {
          "internalType": "bool",
          "name": "",
          "type": "bool"
        }
      ],
      "stateMutability": "view",
      "type": "function"
    },
    {
      "inputs": [
        {
          "internalType": "address",
          "name": "_recipient",
          "type": "address"
        },
        {
          "internalType": "string",
          "name": "_uri",
          "type": "string"
        }
      ],
      "name": "mintNFT",
      "outputs": [
        {
          "internalType": "uint256",
          "name": "",
          "type": "uint256"
        }
      ],
      "stateMutability": "nonpayable",
      "type": "function"
    },
    {
      "inputs": [],
      "name": "name",
      "outputs": [
        {
          "internalType": "string",
          "name": "",
          "type": "string"
        }
      ],
      "stateMutability": "view",
      "type": "function"
    },
    {
      "inputs": [],
      "name": "owner",
      "outputs": [
        {
          "internalType": "address",
          "name": "",
          "type": "address"
        }
      ],
      "stateMutability": "view",
      "type": "function"
    },
    {
      "inputs": [
        {
          "internalType": "uint256",
          "name": "tokenId",
          "type": "uint256"
        }
      ],
      "name": "ownerOf",
      "outputs": [
        {
          "internalType": "address",
          "name": "",
          "type": "address"
        }
      ],
      "stateMutability": "view",
      "type": "function"
    },
    {
      "inputs": [],
      "name": "renounceOwnership",
      "outputs": [],
      "stateMutability": "nonpayable",
      "type": "function"
    },
    {
      "inputs": [
        {
          "internalType": "address",
          "name": "_addr",
          "type": "address"
        }
      ],
      "name": "revokeFromAdmins",
      "outputs": [],
      "stateMutability": "nonpayable",
      "type": "function"
    },
    {
      "inputs": [
        {
          "internalType": "address",
          "name": "from",
          "type": "address"
        },
        {
          "internalType": "address",
          "name": "to",
          "type": "address"
        },
        {
          "internalType": "uint256",
          "name": "tokenId",
          "type": "uint256"
        }
      ],
      "name": "safeTransferFrom",
      "outputs": [],
      "stateMutability": "nonpayable",
      "type": "function"
    },
    {
      "inputs": [
        {
          "internalType": "address",
          "name": "from",
          "type": "address"
        },
        {
          "internalType": "address",
          "name": "to",
          "type": "address"
        },
        {
          "internalType": "uint256",
          "name": "tokenId",
          "type": "uint256"
        },
        {
          "internalType": "bytes",
          "name": "_data",
          "type": "bytes"
        }
      ],
      "name": "safeTransferFrom",
      "outputs": [],
      "stateMutability": "nonpayable",
      "type": "function"
    },
    {
      "inputs": [
        {
          "internalType": "address",
          "name": "operator",
          "type": "address"
        },
        {
          "internalType": "bool",
          "name": "approved",
          "type": "bool"
        }
      ],
      "name": "setApprovalForAll",
      "outputs": [],
      "stateMutability": "nonpayable",
      "type": "function"
    },
    {
      "inputs": [
        {
          "internalType": "bytes4",
          "name": "interfaceId",
          "type": "bytes4"
        }
      ],
      "name": "supportsInterface",
      "outputs": [
        {
          "internalType": "bool",
          "name": "",
          "type": "bool"
        }
      ],
      "stateMutability": "view",
      "type": "function"
    },
    {
      "inputs": [],
      "name": "symbol",
      "outputs": [
        {
          "internalType": "string",
          "name": "",
          "type": "string"
        }
      ],
      "stateMutability": "view",
      "type": "function"
    },
    {
      "inputs": [
        {
          "internalType": "uint256",
          "name": "tokenId",
          "type": "uint256"
        }
      ],
      "name": "tokenURI",
      "outputs": [
        {
          "internalType": "string",
          "name": "",
          "type": "string"
        }
      ],
      "stateMutability": "view",
      "type": "function"
    },
    {
      "inputs": [
        {
          "internalType": "address",
          "name": "from",
          "type": "address"
        },
        {
          "internalType": "address",
          "name": "to",
          "type": "address"
        },
        {
          "internalType": "uint256",
          "name": "tokenId",
          "type": "uint256"
        }
      ],
      "name": "transferFrom",
      "outputs": [],
      "stateMutability": "nonpayable",
      "type": "function"
    },
    {
      "inputs": [
        {
          "internalType": "address",
          "name": "newOwner",
          "type": "address"
        }
      ],
      "name": "transferOwnership",
      "outputs": [],
      "stateMutability": "nonpayable",
      "type": "function"
    }
  ],
  "bytecode": "0x60806040523480156200001157600080fd5b506040518060400160405280600881526020017f4372617a795065650000000000000000000000000000000000000000000000008152506040518060400160405280600381526020017f4359500000000000000000000000000000000000000000000000000000000000815250816000908051906020019062000096929190620001fe565b508060019080519060200190620000af929190620001fe565b505050620000d2620000c66200013060201b60201c565b6200013860201b60201c565b6001600860003373ffffffffffffffffffffffffffffffffffffffff1673ffffffffffffffffffffffffffffffffffffffff16815260200190815260200160002060006101000a81548160ff02191690831515021790555062000313565b600033905090565b6000600760009054906101000a900473ffffffffffffffffffffffffffffffffffffffff16905081600760006101000a81548173ffffffffffffffffffffffffffffffffffffffff021916908373ffffffffffffffffffffffffffffffffffffffff1602179055508173ffffffffffffffffffffffffffffffffffffffff168173ffffffffffffffffffffffffffffffffffffffff167f8be0079c531659141344cd1fd0a4f28419497f9722a3daafe3b4186f6b6457e060405160405180910390a35050565b8280546200020c90620002ae565b90600052602060002090601f0160209004810192826200023057600085556200027c565b82601f106200024b57805160ff19168380011785556200027c565b828001600101855582156200027c579182015b828111156200027b5782518255916020019190600101906200025e565b5b5090506200028b91906200028f565b5090565b5b80821115620002aa57600081600090555060010162000290565b5090565b60006002820490506001821680620002c757607f821691505b60208210811415620002de57620002dd620002e4565b5b50919050565b7f4e487b7100000000000000000000000000000000000000000000000000000000600052602260045260246000fd5b61324580620003236000396000f3fe608060405234801561001057600080fd5b50600436106101215760003560e01c806370a08231116100ad578063b88d4fde11610071578063b88d4fde146102f2578063c87b56dd1461030e578063e985e9c51461033e578063eacabe141461036e578063f2fde38b1461039e57610121565b806370a0823114610260578063715018a6146102905780638da5cb5b1461029a57806395d89b41146102b8578063a22cb465146102d657610121565b80630a1b10e1116100f45780630a1b10e1146101c057806323b872dd146101dc57806342842e0e146101f85780635374ccdd146102145780636352211e1461023057610121565b806301ffc9a71461012657806306fdde0314610156578063081812fc14610174578063095ea7b3146101a4575b600080fd5b610140600480360381019061013b91906121f4565b6103ba565b60405161014d9190612640565b60405180910390f35b61015e61049c565b60405161016b919061265b565b60405180910390f35b61018e60048036038101906101899190612246565b61052e565b60405161019b91906125d9565b60405180910390f35b6101be60048036038101906101b991906121b8565b6105b3565b005b6101da60048036038101906101d59190611ff9565b6106cb565b005b6101f660048036038101906101f1919061205e565b6107e5565b005b610212600480360381019061020d919061205e565b610845565b005b61022e60048036038101906102299190611ff9565b610865565b005b61024a60048036038101906102459190612246565b61097f565b60405161025791906125d9565b60405180910390f35b61027a60048036038101906102759190611ff9565b610a31565b60405161028791906128bd565b60405180910390f35b610298610ae9565b005b6102a2610b71565b6040516102af91906125d9565b60405180910390f35b6102c0610b9b565b6040516102cd919061265b565b60405180910390f35b6102f060048036038101906102eb9190612128565b610c2d565b005b61030c600480360381019061030791906120ad565b610c43565b005b61032860048036038101906103239190612246565b610ca5565b604051610335919061265b565b60405180910390f35b61035860048036038101906103539190612022565b610df7565b6040516103659190612640565b60405180910390f35b61038860048036038101906103839190612164565b610e8b565b60405161039591906128bd565b60405180910390f35b6103b860048036038101906103b39190611ff9565b610f19565b005b60007f80ac58cd000000000000000000000000000000000000000000000000000000007bffffffffffffffffffffffffffffffffffffffffffffffffffffffff1916827bffffffffffffffffffffffffffffffffffffffffffffffffffffffff1916148061048557507f5b5e139f000000000000000000000000000000000000000000000000000000007bffffffffffffffffffffffffffffffffffffffffffffffffffffffff1916827bffffffffffffffffffffffffffffffffffffffffffffffffffffffff1916145b80610495575061049482611011565b5b9050919050565b6060600080546104ab90612b13565b80601f01602080910402602001604051908101604052809291908181526020018280546104d790612b13565b80156105245780601f106104f957610100808354040283529160200191610524565b820191906000526020600020905b81548152906001019060200180831161050757829003601f168201915b5050505050905090565b60006105398261107b565b610578576040517f08c379a000000000000000000000000000000000000000000000000000000000815260040161056f9061281d565b60405180910390fd5b6004600083815260200190815260200160002060009054906101000a900473ffffffffffffffffffffffffffffffffffffffff169050919050565b60006105be8261097f565b90508073ffffffffffffffffffffffffffffffffffffffff168373ffffffffffffffffffffffffffffffffffffffff16141561062f576040517f08c379a00000000000000000000000000000000000000000000000000000000081526004016106269061287d565b60405180910390fd5b8073ffffffffffffffffffffffffffffffffffffffff1661064e6110e7565b73ffffffffffffffffffffffffffffffffffffffff16148061067d575061067c816106776110e7565b610df7565b5b6106bc576040517f08c379a00000000000000000000000000000000000000000000000000000000081526004016106b39061275d565b60405180910390fd5b6106c683836110ef565b505050565b6106d36110e7565b73ffffffffffffffffffffffffffffffffffffffff166106f1610b71565b73ffffffffffffffffffffffffffffffffffffffff1614610747576040517f08c379a000000000000000000000000000000000000000000000000000000000815260040161073e9061283d565b60405180910390fd5b8073ffffffffffffffffffffffffffffffffffffffff167f71614071b88dee5e0b2ae578a9dd7b2ebbe9ae832ba419dc0242cd065a290b6c60405160405180910390a26001600860008373ffffffffffffffffffffffffffffffffffffffff1673ffffffffffffffffffffffffffffffffffffffff16815260200190815260200160002060006101000a81548160ff02191690831515021790555050565b6107f66107f06110e7565b826111a8565b610835576040517f08c379a000000000000000000000000000000000000000000000000000000000815260040161082c9061289d565b60405180910390fd5b610840838383611286565b505050565b61086083838360405180602001604052806000815250610c43565b505050565b61086d6110e7565b73ffffffffffffffffffffffffffffffffffffffff1661088b610b71565b73ffffffffffffffffffffffffffffffffffffffff16146108e1576040517f08c379a00000000000000000000000000000000000000000000000000000000081526004016108d89061283d565b60405180910390fd5b8073ffffffffffffffffffffffffffffffffffffffff167f26e1334bb4ac8458e1edfeedb64f96ceded27e8e84993b4f9460e01a1b20358460405160405180910390a26000600860008373ffffffffffffffffffffffffffffffffffffffff1673ffffffffffffffffffffffffffffffffffffffff16815260200190815260200160002060006101000a81548160ff02191690831515021790555050565b6000806002600084815260200190815260200160002060009054906101000a900473ffffffffffffffffffffffffffffffffffffffff169050600073ffffffffffffffffffffffffffffffffffffffff168173ffffffffffffffffffffffffffffffffffffffff161415610a28576040517f08c379a0000000000000000000000000000000000000000000000000000000008152600401610a1f9061279d565b60405180910390fd5b80915050919050565b60008073ffffffffffffffffffffffffffffffffffffffff168273ffffffffffffffffffffffffffffffffffffffff161415610aa2576040517f08c379a0000000000000000000000000000000000000000000000000000000008152600401610a999061277d565b60405180910390fd5b600360008373ffffffffffffffffffffffffffffffffffffffff1673ffffffffffffffffffffffffffffffffffffffff168152602001908152602001600020549050919050565b610af16110e7565b73ffffffffffffffffffffffffffffffffffffffff16610b0f610b71565b73ffffffffffffffffffffffffffffffffffffffff1614610b65576040517f08c379a0000000000000000000000000000000000000000000000000000000008152600401610b5c9061283d565b60405180910390fd5b610b6f60006114ed565b565b6000600760009054906101000a900473ffffffffffffffffffffffffffffffffffffffff16905090565b606060018054610baa90612b13565b80601f0160208091040260200160405190810160405280929190818152602001828054610bd690612b13565b8015610c235780601f10610bf857610100808354040283529160200191610c23565b820191906000526020600020905b815481529060010190602001808311610c0657829003601f168201915b5050505050905090565b610c3f610c386110e7565b83836115b3565b5050565b610c54610c4e6110e7565b836111a8565b610c93576040517f08c379a0000000000000000000000000000000000000000000000000000000008152600401610c8a9061289d565b60405180910390fd5b610c9f84848484611720565b50505050565b6060610cb08261107b565b610cef576040517f08c379a0000000000000000000000000000000000000000000000000000000008152600401610ce6906127fd565b60405180910390fd5b6000600660008481526020019081526020016000208054610d0f90612b13565b80601f0160208091040260200160405190810160405280929190818152602001828054610d3b90612b13565b8015610d885780601f10610d5d57610100808354040283529160200191610d88565b820191906000526020600020905b815481529060010190602001808311610d6b57829003601f168201915b505050505090506000610d9961177c565b9050600081511415610daf578192505050610df2565b600082511115610de4578082604051602001610dcc9291906125b5565b60405160208183030381529060405292505050610df2565b610ded84611793565b925050505b919050565b6000600560008473ffffffffffffffffffffffffffffffffffffffff1673ffffffffffffffffffffffffffffffffffffffff16815260200190815260200160002060008373ffffffffffffffffffffffffffffffffffffffff1673ffffffffffffffffffffffffffffffffffffffff16815260200190815260200160002060009054906101000a900460ff16905092915050565b6000600860003373ffffffffffffffffffffffffffffffffffffffff1673ffffffffffffffffffffffffffffffffffffffff16815260200190815260200160002060009054906101000a900460ff16610ee357600080fd5b610eed600961183a565b6000610ef96009611850565b9050610f05848261185e565b610f0f8184611a38565b8091505092915050565b610f216110e7565b73ffffffffffffffffffffffffffffffffffffffff16610f3f610b71565b73ffffffffffffffffffffffffffffffffffffffff1614610f95576040517f08c379a0000000000000000000000000000000000000000000000000000000008152600401610f8c9061283d565b60405180910390fd5b600073ffffffffffffffffffffffffffffffffffffffff168173ffffffffffffffffffffffffffffffffffffffff161415611005576040517f08c379a0000000000000000000000000000000000000000000000000000000008152600401610ffc9061269d565b60405180910390fd5b61100e816114ed565b50565b60007f01ffc9a7000000000000000000000000000000000000000000000000000000007bffffffffffffffffffffffffffffffffffffffffffffffffffffffff1916827bffffffffffffffffffffffffffffffffffffffffffffffffffffffff1916149050919050565b60008073ffffffffffffffffffffffffffffffffffffffff166002600084815260200190815260200160002060009054906101000a900473ffffffffffffffffffffffffffffffffffffffff1673ffffffffffffffffffffffffffffffffffffffff1614159050919050565b600033905090565b816004600083815260200190815260200160002060006101000a81548173ffffffffffffffffffffffffffffffffffffffff021916908373ffffffffffffffffffffffffffffffffffffffff160217905550808273ffffffffffffffffffffffffffffffffffffffff166111628361097f565b73ffffffffffffffffffffffffffffffffffffffff167f8c5be1e5ebec7d5bd14f71427d1e84f3dd0314c0f7b2291e5b200ac8c7c3b92560405160405180910390a45050565b60006111b38261107b565b6111f2576040517f08c379a00000000000000000000000000000000000000000000000000000000081526004016111e99061273d565b60405180910390fd5b60006111fd8361097f565b90508073ffffffffffffffffffffffffffffffffffffffff168473ffffffffffffffffffffffffffffffffffffffff16148061126c57508373ffffffffffffffffffffffffffffffffffffffff166112548461052e565b73ffffffffffffffffffffffffffffffffffffffff16145b8061127d575061127c8185610df7565b5b91505092915050565b8273ffffffffffffffffffffffffffffffffffffffff166112a68261097f565b73ffffffffffffffffffffffffffffffffffffffff16146112fc576040517f08c379a00000000000000000000000000000000000000000000000000000000081526004016112f3906126bd565b60405180910390fd5b600073ffffffffffffffffffffffffffffffffffffffff168273ffffffffffffffffffffffffffffffffffffffff16141561136c576040517f08c379a0000000000000000000000000000000000000000000000000000000008152600401611363906126fd565b60405180910390fd5b611377838383611aac565b6113826000826110ef565b6001600360008573ffffffffffffffffffffffffffffffffffffffff1673ffffffffffffffffffffffffffffffffffffffff16815260200190815260200160002060008282546113d29190612a29565b925050819055506001600360008473ffffffffffffffffffffffffffffffffffffffff1673ffffffffffffffffffffffffffffffffffffffff168152602001908152602001600020600082825461142991906129a2565b92505081905550816002600083815260200190815260200160002060006101000a81548173ffffffffffffffffffffffffffffffffffffffff021916908373ffffffffffffffffffffffffffffffffffffffff160217905550808273ffffffffffffffffffffffffffffffffffffffff168473ffffffffffffffffffffffffffffffffffffffff167fddf252ad1be2c89b69c2b068fc378daa952ba7f163c4a11628f55a4df523b3ef60405160405180910390a46114e8838383611ab1565b505050565b6000600760009054906101000a900473ffffffffffffffffffffffffffffffffffffffff16905081600760006101000a81548173ffffffffffffffffffffffffffffffffffffffff021916908373ffffffffffffffffffffffffffffffffffffffff1602179055508173ffffffffffffffffffffffffffffffffffffffff168173ffffffffffffffffffffffffffffffffffffffff167f8be0079c531659141344cd1fd0a4f28419497f9722a3daafe3b4186f6b6457e060405160405180910390a35050565b8173ffffffffffffffffffffffffffffffffffffffff168373ffffffffffffffffffffffffffffffffffffffff161415611622576040517f08c379a00000000000000000000000000000000000000000000000000000000081526004016116199061271d565b60405180910390fd5b80600560008573ffffffffffffffffffffffffffffffffffffffff1673ffffffffffffffffffffffffffffffffffffffff16815260200190815260200160002060008473ffffffffffffffffffffffffffffffffffffffff1673ffffffffffffffffffffffffffffffffffffffff16815260200190815260200160002060006101000a81548160ff0219169083151502179055508173ffffffffffffffffffffffffffffffffffffffff168373ffffffffffffffffffffffffffffffffffffffff167f17307eab39ab6107e8899845ad3d59bd9653f200f220920489ca2b5937696c31836040516117139190612640565b60405180910390a3505050565b61172b848484611286565b61173784848484611ab6565b611776576040517f08c379a000000000000000000000000000000000000000000000000000000000815260040161176d9061267d565b60405180910390fd5b50505050565b606060405180602001604052806000815250905090565b606061179e8261107b565b6117dd576040517f08c379a00000000000000000000000000000000000000000000000000000000081526004016117d49061285d565b60405180910390fd5b60006117e761177c565b905060008151116118075760405180602001604052806000815250611832565b8061181184611c4d565b6040516020016118229291906125b5565b6040516020818303038152906040525b915050919050565b6001816000016000828254019250508190555050565b600081600001549050919050565b600073ffffffffffffffffffffffffffffffffffffffff168273ffffffffffffffffffffffffffffffffffffffff1614156118ce576040517f08c379a00000000000000000000000000000000000000000000000000000000081526004016118c5906127dd565b60405180910390fd5b6118d78161107b565b15611917576040517f08c379a000000000000000000000000000000000000000000000000000000000815260040161190e906126dd565b60405180910390fd5b61192360008383611aac565b6001600360008473ffffffffffffffffffffffffffffffffffffffff1673ffffffffffffffffffffffffffffffffffffffff168152602001908152602001600020600082825461197391906129a2565b92505081905550816002600083815260200190815260200160002060006101000a81548173ffffffffffffffffffffffffffffffffffffffff021916908373ffffffffffffffffffffffffffffffffffffffff160217905550808273ffffffffffffffffffffffffffffffffffffffff16600073ffffffffffffffffffffffffffffffffffffffff167fddf252ad1be2c89b69c2b068fc378daa952ba7f163c4a11628f55a4df523b3ef60405160405180910390a4611a3460008383611ab1565b5050565b611a418261107b565b611a80576040517f08c379a0000000000000000000000000000000000000000000000000000000008152600401611a77906127bd565b60405180910390fd5b80600660008481526020019081526020016000209080519060200190611aa7929190611e1d565b505050565b505050565b505050565b6000611ad78473ffffffffffffffffffffffffffffffffffffffff16611dfa565b15611c40578373ffffffffffffffffffffffffffffffffffffffff1663150b7a02611b006110e7565b8786866040518563ffffffff1660e01b8152600401611b2294939291906125f4565b602060405180830381600087803b158015611b3c57600080fd5b505af1925050508015611b6d57506040513d601f19601f82011682018060405250810190611b6a919061221d565b60015b611bf0573d8060008114611b9d576040519150601f19603f3d011682016040523d82523d6000602084013e611ba2565b606091505b50600081511415611be8576040517f08c379a0000000000000000000000000000000000000000000000000000000008152600401611bdf9061267d565b60405180910390fd5b805181602001fd5b63150b7a0260e01b7bffffffffffffffffffffffffffffffffffffffffffffffffffffffff1916817bffffffffffffffffffffffffffffffffffffffffffffffffffffffff191614915050611c45565b600190505b949350505050565b60606000821415611c95576040518060400160405280600181526020017f30000000000000000000000000000000000000000000000000000000000000008152509050611df5565b600082905060005b60008214611cc7578080611cb090612b76565b915050600a82611cc091906129f8565b9150611c9d565b60008167ffffffffffffffff811115611d09577f4e487b7100000000000000000000000000000000000000000000000000000000600052604160045260246000fd5b6040519080825280601f01601f191660200182016040528015611d3b5781602001600182028036833780820191505090505b5090505b60008514611dee57600182611d549190612a29565b9150600a85611d639190612bbf565b6030611d6f91906129a2565b60f81b818381518110611dab577f4e487b7100000000000000000000000000000000000000000000000000000000600052603260045260246000fd5b60200101907effffffffffffffffffffffffffffffffffffffffffffffffffffffffffffff1916908160001a905350600a85611de791906129f8565b9450611d3f565b8093505050505b919050565b6000808273ffffffffffffffffffffffffffffffffffffffff163b119050919050565b828054611e2990612b13565b90600052602060002090601f016020900481019282611e4b5760008555611e92565b82601f10611e6457805160ff1916838001178555611e92565b82800160010185558215611e92579182015b82811115611e91578251825591602001919060010190611e76565b5b509050611e9f9190611ea3565b5090565b5b80821115611ebc576000816000905550600101611ea4565b5090565b6000611ed3611ece846128fd565b6128d8565b905082815260208101848484011115611eeb57600080fd5b611ef6848285612ad1565b509392505050565b6000611f11611f0c8461292e565b6128d8565b905082815260208101848484011115611f2957600080fd5b611f34848285612ad1565b509392505050565b600081359050611f4b816131b3565b92915050565b600081359050611f60816131ca565b92915050565b600081359050611f75816131e1565b92915050565b600081519050611f8a816131e1565b92915050565b600082601f830112611fa157600080fd5b8135611fb1848260208601611ec0565b91505092915050565b600082601f830112611fcb57600080fd5b8135611fdb848260208601611efe565b91505092915050565b600081359050611ff3816131f8565b92915050565b60006020828403121561200b57600080fd5b600061201984828501611f3c565b91505092915050565b6000806040838503121561203557600080fd5b600061204385828601611f3c565b925050602061205485828601611f3c565b9150509250929050565b60008060006060848603121561207357600080fd5b600061208186828701611f3c565b935050602061209286828701611f3c565b92505060406120a386828701611fe4565b9150509250925092565b600080600080608085870312156120c357600080fd5b60006120d187828801611f3c565b94505060206120e287828801611f3c565b93505060406120f387828801611fe4565b925050606085013567ffffffffffffffff81111561211057600080fd5b61211c87828801611f90565b91505092959194509250565b6000806040838503121561213b57600080fd5b600061214985828601611f3c565b925050602061215a85828601611f51565b9150509250929050565b6000806040838503121561217757600080fd5b600061218585828601611f3c565b925050602083013567ffffffffffffffff8111156121a257600080fd5b6121ae85828601611fba565b9150509250929050565b600080604083850312156121cb57600080fd5b60006121d985828601611f3c565b92505060206121ea85828601611fe4565b9150509250929050565b60006020828403121561220657600080fd5b600061221484828501611f66565b91505092915050565b60006020828403121561222f57600080fd5b600061223d84828501611f7b565b91505092915050565b60006020828403121561225857600080fd5b600061226684828501611fe4565b91505092915050565b61227881612a5d565b82525050565b61228781612a6f565b82525050565b60006122988261295f565b6122a28185612975565b93506122b2818560208601612ae0565b6122bb81612cac565b840191505092915050565b60006122d18261296a565b6122db8185612986565b93506122eb818560208601612ae0565b6122f481612cac565b840191505092915050565b600061230a8261296a565b6123148185612997565b9350612324818560208601612ae0565b80840191505092915050565b600061233d603283612986565b915061234882612cbd565b604082019050919050565b6000612360602683612986565b915061236b82612d0c565b604082019050919050565b6000612383602583612986565b915061238e82612d5b565b604082019050919050565b60006123a6601c83612986565b91506123b182612daa565b602082019050919050565b60006123c9602483612986565b91506123d482612dd3565b604082019050919050565b60006123ec601983612986565b91506123f782612e22565b602082019050919050565b600061240f602c83612986565b915061241a82612e4b565b604082019050919050565b6000612432603883612986565b915061243d82612e9a565b604082019050919050565b6000612455602a83612986565b915061246082612ee9565b604082019050919050565b6000612478602983612986565b915061248382612f38565b604082019050919050565b600061249b602e83612986565b91506124a682612f87565b604082019050919050565b60006124be602083612986565b91506124c982612fd6565b602082019050919050565b60006124e1603183612986565b91506124ec82612fff565b604082019050919050565b6000612504602c83612986565b915061250f8261304e565b604082019050919050565b6000612527602083612986565b91506125328261309d565b602082019050919050565b600061254a602f83612986565b9150612555826130c6565b604082019050919050565b600061256d602183612986565b915061257882613115565b604082019050919050565b6000612590603183612986565b915061259b82613164565b604082019050919050565b6125af81612ac7565b82525050565b60006125c182856122ff565b91506125cd82846122ff565b91508190509392505050565b60006020820190506125ee600083018461226f565b92915050565b6000608082019050612609600083018761226f565b612616602083018661226f565b61262360408301856125a6565b8181036060830152612635818461228d565b905095945050505050565b6000602082019050612655600083018461227e565b92915050565b6000602082019050818103600083015261267581846122c6565b905092915050565b6000602082019050818103600083015261269681612330565b9050919050565b600060208201905081810360008301526126b681612353565b9050919050565b600060208201905081810360008301526126d681612376565b9050919050565b600060208201905081810360008301526126f681612399565b9050919050565b60006020820190508181036000830152612716816123bc565b9050919050565b60006020820190508181036000830152612736816123df565b9050919050565b6000602082019050818103600083015261275681612402565b9050919050565b6000602082019050818103600083015261277681612425565b9050919050565b6000602082019050818103600083015261279681612448565b9050919050565b600060208201905081810360008301526127b68161246b565b9050919050565b600060208201905081810360008301526127d68161248e565b9050919050565b600060208201905081810360008301526127f6816124b1565b9050919050565b60006020820190508181036000830152612816816124d4565b9050919050565b60006020820190508181036000830152612836816124f7565b9050919050565b600060208201905081810360008301526128568161251a565b9050919050565b600060208201905081810360008301526128768161253d565b9050919050565b6000602082019050818103600083015261289681612560565b9050919050565b600060208201905081810360008301526128b681612583565b9050919050565b60006020820190506128d260008301846125a6565b92915050565b60006128e26128f3565b90506128ee8282612b45565b919050565b6000604051905090565b600067ffffffffffffffff82111561291857612917612c7d565b5b61292182612cac565b9050602081019050919050565b600067ffffffffffffffff82111561294957612948612c7d565b5b61295282612cac565b9050602081019050919050565b600081519050919050565b600081519050919050565b600082825260208201905092915050565b600082825260208201905092915050565b600081905092915050565b60006129ad82612ac7565b91506129b883612ac7565b9250827fffffffffffffffffffffffffffffffffffffffffffffffffffffffffffffffff038211156129ed576129ec612bf0565b5b828201905092915050565b6000612a0382612ac7565b9150612a0e83612ac7565b925082612a1e57612a1d612c1f565b5b828204905092915050565b6000612a3482612ac7565b9150612a3f83612ac7565b925082821015612a5257612a51612bf0565b5b828203905092915050565b6000612a6882612aa7565b9050919050565b60008115159050919050565b60007fffffffff0000000000000000000000000000000000000000000000000000000082169050919050565b600073ffffffffffffffffffffffffffffffffffffffff82169050919050565b6000819050919050565b82818337600083830152505050565b60005b83811015612afe578082015181840152602081019050612ae3565b83811115612b0d576000848401525b50505050565b60006002820490506001821680612b2b57607f821691505b60208210811415612b3f57612b3e612c4e565b5b50919050565b612b4e82612cac565b810181811067ffffffffffffffff82111715612b6d57612b6c612c7d565b5b80604052505050565b6000612b8182612ac7565b91507fffffffffffffffffffffffffffffffffffffffffffffffffffffffffffffffff821415612bb457612bb3612bf0565b5b600182019050919050565b6000612bca82612ac7565b9150612bd583612ac7565b925082612be557612be4612c1f565b5b828206905092915050565b7f4e487b7100000000000000000000000000000000000000000000000000000000600052601160045260246000fd5b7f4e487b7100000000000000000000000000000000000000000000000000000000600052601260045260246000fd5b7f4e487b7100000000000000000000000000000000000000000000000000000000600052602260045260246000fd5b7f4e487b7100000000000000000000000000000000000000000000000000000000600052604160045260246000fd5b6000601f19601f8301169050919050565b7f4552433732313a207472616e7366657220746f206e6f6e20455243373231526560008201527f63656976657220696d706c656d656e7465720000000000000000000000000000602082015250565b7f4f776e61626c653a206e6577206f776e657220697320746865207a65726f206160008201527f6464726573730000000000000000000000000000000000000000000000000000602082015250565b7f4552433732313a207472616e736665722066726f6d20696e636f72726563742060008201527f6f776e6572000000000000000000000000000000000000000000000000000000602082015250565b7f4552433732313a20746f6b656e20616c7265616479206d696e74656400000000600082015250565b7f4552433732313a207472616e7366657220746f20746865207a65726f2061646460008201527f7265737300000000000000000000000000000000000000000000000000000000602082015250565b7f4552433732313a20617070726f766520746f2063616c6c657200000000000000600082015250565b7f4552433732313a206f70657261746f7220717565727920666f72206e6f6e657860008201527f697374656e7420746f6b656e0000000000000000000000000000000000000000602082015250565b7f4552433732313a20617070726f76652063616c6c6572206973206e6f74206f7760008201527f6e6572206e6f7220617070726f76656420666f7220616c6c0000000000000000602082015250565b7f4552433732313a2062616c616e636520717565727920666f7220746865207a6560008201527f726f206164647265737300000000000000000000000000000000000000000000602082015250565b7f4552433732313a206f776e657220717565727920666f72206e6f6e657869737460008201527f656e7420746f6b656e0000000000000000000000000000000000000000000000602082015250565b7f45524337323155524953746f726167653a2055524920736574206f66206e6f6e60008201527f6578697374656e7420746f6b656e000000000000000000000000000000000000602082015250565b7f4552433732313a206d696e7420746f20746865207a65726f2061646472657373600082015250565b7f45524337323155524953746f726167653a2055524920717565727920666f722060008201527f6e6f6e6578697374656e7420746f6b656e000000000000000000000000000000602082015250565b7f4552433732313a20617070726f76656420717565727920666f72206e6f6e657860008201527f697374656e7420746f6b656e0000000000000000000000000000000000000000602082015250565b7f4f776e61626c653a2063616c6c6572206973206e6f7420746865206f776e6572600082015250565b7f4552433732314d657461646174613a2055524920717565727920666f72206e6f60008201527f6e6578697374656e7420746f6b656e0000000000000000000000000000000000602082015250565b7f4552433732313a20617070726f76616c20746f2063757272656e74206f776e6560008201527f7200000000000000000000000000000000000000000000000000000000000000602082015250565b7f4552433732313a207472616e736665722063616c6c6572206973206e6f74206f60008201527f776e6572206e6f7220617070726f766564000000000000000000000000000000602082015250565b6131bc81612a5d565b81146131c757600080fd5b50565b6131d381612a6f565b81146131de57600080fd5b50565b6131ea81612a7b565b81146131f557600080fd5b50565b61320181612ac7565b811461320c57600080fd5b5056fea2646970667358221220839237800d7e746f26442bee2eaa401b92fd1f7ea1128407df5024c9ca5e167964736f6c63430008010033",
  "linkReferences": {},
  "deployedLinkReferences": {}
}