{
  "_format": "hh-sol-artifact-1",
  "contractName": "Admin",
  "sourceName": "contracts/admin.sol",
  "abi": [
    {
      "inputs": [],
      "stateMutability": "nonpayable",
      "type": "constructor"
    },
    {
      "anonymous": false,
      "inputs": [
        {
          "indexed": true,
          "internalType": "address",
          "name": "addr",
          "type": "address"
        }
      ],
      "name": "NewAdmin",
      "type": "event"
    },
    {
      "anonymous": false,
      "inputs": [
        {
          "indexed": true,
          "internalType": "address",
          "name": "previousOwner",
          "type": "address"
        },
        {
          "indexed": true,
          "internalType": "address",
          "name": "newOwner",
          "type": "address"
        }
      ],
      "name": "OwnershipTransferred",
      "type": "event"
    },
    {
      "anonymous": false,
      "inputs": [
        {
          "indexed": true,
          "internalType": "address",
          "name": "addr",
          "type": "address"
        }
      ],
      "name": "RevokedAdmin",
      "type": "event"
    },
    {
      "inputs": [
        {
          "internalType": "address",
          "name": "_addr",
          "type": "address"
        }
      ],
      "name": "addNewAdmin",
      "outputs": [],
      "stateMutability": "nonpayable",
      "type": "function"
    },
    {
      "inputs": [],
      "name": "owner",
      "outputs": [
        {
          "internalType": "address",
          "name": "",
          "type": "address"
        }
      ],
      "stateMutability": "view",
      "type": "function"
    },
    {
      "inputs": [],
      "name": "renounceOwnership",
      "outputs": [],
      "stateMutability": "nonpayable",
      "type": "function"
    },
    {
      "inputs": [
        {
          "internalType": "address",
          "name": "_addr",
          "type": "address"
        }
      ],
      "name": "revokeFromAdmins",
      "outputs": [],
      "stateMutability": "nonpayable",
      "type": "function"
    },
    {
      "inputs": [
        {
          "internalType": "address",
          "name": "newOwner",
          "type": "address"
        }
      ],
      "name": "transferOwnership",
      "outputs": [],
      "stateMutability": "nonpayable",
      "type": "function"
    }
  ],
  "bytecode": "0x608060405234801561001057600080fd5b5061002d61002261008960201b60201c565b61009160201b60201c565b60018060003373ffffffffffffffffffffffffffffffffffffffff1673ffffffffffffffffffffffffffffffffffffffff16815260200190815260200160002060006101000a81548160ff021916908315150217905550610155565b600033905090565b60008060009054906101000a900473ffffffffffffffffffffffffffffffffffffffff169050816000806101000a81548173ffffffffffffffffffffffffffffffffffffffff021916908373ffffffffffffffffffffffffffffffffffffffff1602179055508173ffffffffffffffffffffffffffffffffffffffff168173ffffffffffffffffffffffffffffffffffffffff167f8be0079c531659141344cd1fd0a4f28419497f9722a3daafe3b4186f6b6457e060405160405180910390a35050565b610776806101646000396000f3fe608060405234801561001057600080fd5b50600436106100575760003560e01c80630a1b10e11461005c5780635374ccdd14610078578063715018a6146100945780638da5cb5b1461009e578063f2fde38b146100bc575b600080fd5b61007660048036038101906100719190610595565b6100d8565b005b610092600480360381019061008d9190610595565b6101f1565b005b61009c61030b565b005b6100a6610393565b6040516100b39190610613565b60405180910390f35b6100d660048036038101906100d19190610595565b6103bc565b005b6100e06104b4565b73ffffffffffffffffffffffffffffffffffffffff166100fe610393565b73ffffffffffffffffffffffffffffffffffffffff1614610154576040517f08c379a000000000000000000000000000000000000000000000000000000000815260040161014b9061064e565b60405180910390fd5b8073ffffffffffffffffffffffffffffffffffffffff167f71614071b88dee5e0b2ae578a9dd7b2ebbe9ae832ba419dc0242cd065a290b6c60405160405180910390a260018060008373ffffffffffffffffffffffffffffffffffffffff1673ffffffffffffffffffffffffffffffffffffffff16815260200190815260200160002060006101000a81548160ff02191690831515021790555050565b6101f96104b4565b73ffffffffffffffffffffffffffffffffffffffff16610217610393565b73ffffffffffffffffffffffffffffffffffffffff161461026d576040517f08c379a00000000000000000000000000000000000000000000000000000000081526004016102649061064e565b60405180910390fd5b8073ffffffffffffffffffffffffffffffffffffffff167f26e1334bb4ac8458e1edfeedb64f96ceded27e8e84993b4f9460e01a1b20358460405160405180910390a26000600160008373ffffffffffffffffffffffffffffffffffffffff1673ffffffffffffffffffffffffffffffffffffffff16815260200190815260200160002060006101000a81548160ff02191690831515021790555050565b6103136104b4565b73ffffffffffffffffffffffffffffffffffffffff16610331610393565b73ffffffffffffffffffffffffffffffffffffffff1614610387576040517f08c379a000000000000000000000000000000000000000000000000000000000815260040161037e9061064e565b60405180910390fd5b61039160006104bc565b565b60008060009054906101000a900473ffffffffffffffffffffffffffffffffffffffff16905090565b6103c46104b4565b73ffffffffffffffffffffffffffffffffffffffff166103e2610393565b73ffffffffffffffffffffffffffffffffffffffff1614610438576040517f08c379a000000000000000000000000000000000000000000000000000000000815260040161042f9061064e565b60405180910390fd5b600073ffffffffffffffffffffffffffffffffffffffff168173ffffffffffffffffffffffffffffffffffffffff1614156104a8576040517f08c379a000000000000000000000000000000000000000000000000000000000815260040161049f9061062e565b60405180910390fd5b6104b1816104bc565b50565b600033905090565b60008060009054906101000a900473ffffffffffffffffffffffffffffffffffffffff169050816000806101000a81548173ffffffffffffffffffffffffffffffffffffffff021916908373ffffffffffffffffffffffffffffffffffffffff1602179055508173ffffffffffffffffffffffffffffffffffffffff168173ffffffffffffffffffffffffffffffffffffffff167f8be0079c531659141344cd1fd0a4f28419497f9722a3daafe3b4186f6b6457e060405160405180910390a35050565b60008135905061058f81610729565b92915050565b6000602082840312156105a757600080fd5b60006105b584828501610580565b91505092915050565b6105c78161067f565b82525050565b60006105da60268361066e565b91506105e5826106b1565b604082019050919050565b60006105fd60208361066e565b915061060882610700565b602082019050919050565b600060208201905061062860008301846105be565b92915050565b60006020820190508181036000830152610647816105cd565b9050919050565b60006020820190508181036000830152610667816105f0565b9050919050565b600082825260208201905092915050565b600061068a82610691565b9050919050565b600073ffffffffffffffffffffffffffffffffffffffff82169050919050565b7f4f776e61626c653a206e6577206f776e657220697320746865207a65726f206160008201527f6464726573730000000000000000000000000000000000000000000000000000602082015250565b7f4f776e61626c653a2063616c6c6572206973206e6f7420746865206f776e6572600082015250565b6107328161067f565b811461073d57600080fd5b5056fea26469706673582212209f5efba425fa182efa61257ffa0445bf4124d6dd438216290a856309b3776d7664736f6c63430008010033",
  "linkReferences": {},
  "deployedLinkReferences": {}
}